:100000000C9457010C9488010C9488010C9488017D
:100010000C9488010C9488010C9488010C9488013C
:100020000C9488010C9488010C9488010C9488012C
:100030000C9488010C9488010C9488010C9488011C
:100040000C9488010C9488010C9488010C9488010C
:100050000C9488010C9488010C9488010C94C005C0
:100060000C9488010C9494060C946A060C948801F4
:100070000C9488010C9488010C9488010C948801DC
:100080000C9488010C9488010C9488010C948801CC
:100090000C9434060C940A060C9488010C94880184
:1000A0000C9488010C9488010C9488010C948801AC
:1000B0000C9488010C9488010C9488010C9488019C
:1000C0000C9488010C9488010C9488010C9488018C
:1000D0000C9488010C9488010C9488010C9488017C
:1000E0000C9488010C94D5020C940A020C94EA0139
:1000F0000C94F4010C94CF010C94F9020C94DD01E2
:100100000C9444030C94CA060C9477040C94E101FB
:100110000C941C030C94E5020C9402020C94E8036A
:100120000C9414020C9426030C94B7020C94100245
:100130000C9430030C9486030C94B2020C94DA03F2
:100140000C94D5010C94EE010C9406020C944A0315
:100150000C94DD020C9403030C943A030C94CB0230
:100160000C94AA020C94F8010C94EF020C942A044B
:100170000C9477030C94E4010C940F020C94C102CC
:100180000C9412030C94FC010C94D9010000200083
:100190002300260029002C002F003200000100005F
:1001A00003010601090100002100240027002A00A4
:1001B0002D003000330001010000040107010A0195
:1001C00000002200250028002B002E003100340002
:1001D00002010000050108010B01050505050705E1
:1001E00008080808020202020A0A080804040404B3
:1001F00001010101010101010303030303030303DF
:10020000040707070C0C0C0C0C0C0C0C020202026D
:1002100006060606060606060B0B0B0B0B0B0B0B56
:100220000102102020080810204010204080020108
:1002300002010804020101020408102040808040ED
:1002400020100804020180040201804020100804EC
:10025000020108040201010204081020408001028A
:1002600004081020408000000A0B02090C0D0E0843
:10027000070304010000000000000000000000006F
:10028000000000000000000000000000000000006E
:10029000000012111000000000000000000000002B
:1002A000000000000000000000000000CA06112449
:1002B0001FBECFEFD1E2DEBFCDBF00E00CBF23E019
:1002C000A4E6B2E001C01D92A03BB207E1F712E044
:1002D000A0E0B2E0EAEBF7E100E00BBF02C007905C
:1002E0000D92A436B107D9F711E0C7E5D1E000E0DF
:1002F00006C021970109802FFE010E94B409C6356E
:10030000D10780E00807A9F70E941D070C94DB0BBA
:100310000C940000FC01A089B18982E08C93A48533
:10032000B5851C92A685B78580E18C93108EA48933
:10033000B58986E08C93A289B3898C9180618C9376
:10034000A289B3898C9188608C93A289B3898C919E
:1003500080688C930288F389E02D80818F7D808373
:1003600008958150823108F05AC0E82FF0E08827C4
:10037000E354FE4F8F4F0C94B409DD01E101CF012E
:10038000D501D9010F02E401EA01EE01F401F801FF
:10039000FC01020206020F020A02100214028091FE
:1003A00080008F77809380000895809180008F7DFA
:1003B000F9CF80918000877FF5CF84B58F7784BD9A
:1003C000089584B58F7DFBCF8091B0008F778093A7
:1003D000B00008958091B0008F7DF9CF809190009A
:1003E0008F77809390000895809190008F7DF9CF52
:1003F00080919000877FF5CF8091A0008F778093C8
:10040000A00008958091A0008F7DF9CF8091A00079
:10041000877FF5CF809120018F7780932001089509
:10042000809120018F7DF9CF80912001877FF5CFCA
:100430001F93CF93DF93282F30E0F901EA59FD4F46
:100440008491F901E05EFD4FD491F901E652FE4F2F
:10045000C491CC23A9F0162F81110E94B101EC2F79
:10046000F0E0EE0FFF1FE054FE4FA591B4918FB75F
:10047000F894EC91111108C0D095DE23DC938FBF66
:10048000DF91CF911F910895DE2BF8CFCF93DF93AB
:1004900090E0FC01E05EFD4F249186529E4FFC01EE
:1004A00084918823D1F090E0880F991FFC01EA55D0
:1004B000FE4FA591B491FC01E054FE4FC591D4913B
:1004C00061110EC09FB7F8948C91E22FE0958E23B6
:1004D0008C932881E223E8839FBFDF91CF91089519
:1004E0008FB7F894EC91E22BEC938FBFF6CF1F936C
:1004F000CF93DF93182FEB0161E00E944602209713
:1005000039F460E0812FDF91CF911F910C94180294
:10051000E12FF0E0EA59FD4FE491E150E23108F0BB
:10052000B3C0F0E08827E856FD4F8F4F0C94B40914
:10053000AA02B202B702C102CB024403D502DD0215
:10054000E502EF02F902030312031C03440326032E
:1005500030033A0384B5806884BDC7BDDF91CF9175
:100560001F91089584B5806284BDC8BDF7CF809186
:100570008000806880938000D0938900C0938800B9
:10058000EDCF80918000806280938000D0938B00BB
:10059000C0938A00E3CF80918000886080938000C0
:1005A000D0938D00C0938C00D9CF8091B00080682B
:1005B0008093B000C093B300D1CF8091B00080622F
:1005C0008093B000C093B400C9CF80919000806840
:1005D00080939000D0939900C0939800BFCF8091F2
:1005E0009000806280939000D0939B00C0939A000B
:1005F000B5CF80919000886080939000D0939D004B
:10060000C0939C00ABCF8091A00080688093A00035
:100610008091A0008F7B8093A000D093A900C0930D
:10062000A8009CCF8091A00080628093A000D0930E
:10063000AB00C093AA0092CF8091A0008860809305
:10064000A000D093AD00C093AC0088CF8091200172
:10065000806880932001D0932901C09328017ECF28
:1006600080912001806280932001D0932B01C09360
:100670002A0174CF80912001886080932001D0935B
:100680002D01C0932C016ACFC038D1050CF439CFAD
:1006900061E038CFAF92BF92CF92DF92EF92FF929C
:1006A0000F931F93CF93DF936C017B018B01040F9A
:1006B000151FEB015E01AE18BF08C017D10759F036
:1006C0006991D601ED91FC910190F081E02DC60178
:1006D0001995892B79F7C501DF91CF911F910F9162
:1006E000FF90EF90DF90CF90BF90AF900895FC0106
:1006F000538D448D252F30E0842F90E0821B930B87
:10070000541710F0CF96089501970895FC01918D2C
:10071000828D981761F0A28DAE0FBF2FB11D5D962F
:100720008C91928D9F5F9F73928F90E008958FEFD1
:100730009FEF08952FB7F89480916E0290916F0209
:10074000A0917002B09171022FBF80937A029093B2
:100750007B02A0937C02B0937D0282E792E00E942C
:10076000860397FF26C02FB7F89480916E02909170
:100770006F02A0917002B09171022FBF40917A0276
:1007800050917B0260917C0270917D02841B950BDD
:10079000A60BB70B409176025091770260917802D8
:1007A0007091790284179507A607B707B0F28FEF0B
:1007B0009FEF0895FC01918D828D981731F0828D05
:1007C000E80FF11D858D90E008958FEF9FEF08955C
:1007D000FC01918D228D892F90E0805C9F4F821BC0
:1007E00091098F739927089582E792E00E94E803A8
:1007F00021E0892B09F420E0822F08958FE093E017
:100800000E94E80321E0892B09F420E0822F08955B
:10081000FC01A48DA80FB92FB11DA35ABF4F2C9175
:10082000848D90E001968F739927848FA689B7896C
:100830002C93A089B1898C91837080648C93938D63
:10084000848D981306C00288F389E02D80818F7D06
:1008500080830895EF92FF920F931F93CF93DF93BE
:10086000EC0181E0888F9B8D8C8D98131AC0E889EC
:10087000F989808185FF15C09FB7F894EE89FF89BB
:100880006083E889F98980818370806480839FBF59
:1008900081E090E0DF91CF911F910F91FF90EF9059
:1008A0000895F62E0B8D10E00F5F1F4F0F73112769
:1008B000E02E8C8D8E110CC00FB607FCFACFE889A4
:1008C000F989808185FFF5CFCE010E940804F1CF20
:1008D000EB8DEC0FFD2FF11DE35AFF4FF0829FB718
:1008E000F8940B8FEA89FB8980818062CFCFCF9308
:1008F000DF93EC01888D8823B9F0AA89BB89E88948
:10090000F9898C9185FD03C0808186FD0DC00FB6ED
:1009100007FCF7CF8C9185FFF2CF808185FFEDCF6B
:10092000CE010E940804E9CFDF91CF91089580E0C5
:1009300090E0892B29F00E94FE0381110E940000A3
:1009400080E090E0892B29F00E94F40381110E943D
:10095000000080E090E0892B49F080E090E0892B56
:1009600029F00E94000081110E94000080E090E0C8
:10097000892B49F080E090E0892B29F00E9400004B
:1009800081110C940000089560E086E10E94180235
:1009900060E087E10E94180260E088E10E9418028E
:1009A00060E089E10E94180270E060E08AE10E9444
:1009B000770270E060E08BE10C947702CF93DF93D5
:1009C0009C01FC01EA59FD4F8491F901E05EFD4F65
:1009D000D491F901E652FE4FC491CC23C9F08111A4
:1009E0000E94B101EC2FF0E0EE0FFF1FE457FE4F25
:1009F000A591B491EC91ED2331E020E009F430E0D1
:100A0000832F922F21E082278170DF91CF9108956B
:100A100090E080E0F7CFFB0101900020E9F73197EB
:100A2000AF01461B570B0C944A038F929F92AF92D3
:100A3000BF920F931F93CF93DF93CDB7DEB7A197EC
:100A40000FB6F894DEBF0FBECDBF19A2423008F436
:100A50004AE08E010F5D1F4F842E912CB12CA12CEA
:100A6000A50194010E949209E62FB901CA01EA305A
:100A700004F5E05DD801EE938D01232B242B252B6B
:100A800079F790E080E0109729F0BD0182E792E0CD
:100A90000E940B05A1960FB6F894DEBF0FBECDBF26
:100AA000DF91CF911F910F91BF90AF909F908F904A
:100AB0000895E95CDFCFCF92DF92EF92FF92CF9360
:100AC000DF936B017C016DE282E792E00E942A04D1
:100AD000EC0166277727CB016C197D098E099F09E8
:100AE0004AE00E9415058C0F9D1FDF91CF91FF906A
:100AF000EF90DF90CF900895BC01990F880B990B70
:100B00004AE00C941505FC0124813581232B39F42E
:100B100021E0FB018081882349F020E007C080812B
:100B200091810E94CB0B21E0892BB9F7822F089588
:100B30000F931F93CF93DF93EC01888199810097E6
:100B400059F02A813B812617370730F081E0DF9189
:100B5000CF911F910F9108958B016F5F7F4F0E947E
:100B6000E10A009759F0998388831B830A832C81BB
:100B70003D81232B59F7FC011082E8CF80E0E7CFBD
:100B80001F920F920FB60F9211242F933F938F93C2
:100B90009F93AF93BF9380916E0290916F02A0914B
:100BA0007002B091710230916D0223E0230F2D3756
:100BB00058F50196A11DB11D20936D0280936E0220
:100BC00090936F02A0937002B093710280916902BA
:100BD00090916A02A0916B02B0916C020196A11DE6
:100BE000B11D8093690290936A02A0936B02B09347
:100BF0006C02BF91AF919F918F913F912F910F9078
:100C00000FBE0F901F90189526E8230F0296A11D86
:100C1000B11DD2CF1F920F920FB60F9211240BB6B7
:100C20000F922F933F934F935F936F937F938F9385
:100C30009F93AF93BF93EF93FF9382E792E00E945D
:100C40000804FF91EF91BF91AF919F918F917F9198
:100C50006F915F914F913F912F910F900BBE0F902D
:100C60000FBE0F901F9018951F920F920FB60F9204
:100C700011240BB60F922F938F939F93EF93FF93B3
:100C8000E0918202F09183028081E0918802F091EC
:100C9000890282FD1DC0908180918B028F5F8F73CE
:100CA00020918C02821741F0E0918B02F0E0EE5827
:100CB000FD4F958F80938B02FF91EF919F918F91C4
:100CC0002F910F900BBE0F900FBE0F901F90189595
:100CD0008081F2CF1F920F920FB60F9211240BB6A4
:100CE0000F922F933F934F935F936F937F938F93C5
:100CF0009F93AF93BF93EF93FF938FE093E00E9496
:100D00000804FF91EF91BF91AF919F918F917F91D7
:100D10006F915F914F913F912F910F900BBE0F906C
:100D20000FBE0F901F9018951F920F920FB60F9243
:100D300011240BB60F922F938F939F93EF93FF93F2
:100D4000E0911F03F09120038081E0912503F09151
:100D5000260382FD1DC09081809128038F5F8F73D1
:100D600020912903821741F0E0912803F0E0E15F30
:100D7000FC4F958F80932803FF91EF919F918F9166
:100D80002F910F900BBE0F900FBE0F901F901895D4
:100D90008081F2CFE2E7F2E01382128248EE53E064
:100DA00060E070E044835583668377838AE092E055
:100DB000918380832DEC30E0358724872CEC30E064
:100DC0003787268728EC30E0318B208B29EC30E008
:100DD000338B228B2AEC30E0358B248B2EEC30E0E9
:100DE000378B268B118E128E138E148EEFE0F3E06C
:100DF0001382128244835583668377839183808331
:100E000085EC90E09587848784EC90E097878687CF
:100E100080EC90E0918B808B81EC90E0938B828BC7
:100E200082EC90E0958B848B86EC90E0978B868BA0
:100E3000118E128E138E148E0895CF93DF9300D0EF
:100E400000D01F921F92CDB7DEB7789484B5826030
:100E500084BD84B5816084BD85B5826085BD85B55E
:100E6000816085BD80916E00816080936E001092DC
:100E70008100809181008260809381008091810057
:100E800081608093810080918000816080938000E8
:100E90008091B10084608093B1008091B000816046
:100EA0008093B00080919100826080939100809146
:100EB0009100816080939100809190008160809387
:100EC00090008091A10082608093A1008091A10098
:100ED00081608093A1008091A00081608093A00038
:100EE00080912101826080932101809121018160A4
:100EF0008093210180912001816080932001809165
:100F00007A00846080937A0080917A008260809376
:100F10007A0080917A00816080937A0080917A00D3
:100F2000806880937A001092C1008FE093E00E9465
:100F30008A0182E792E00E948A0161E086E10E94D4
:100F4000460261E087E10E94460261E08AE10E9478
:100F5000460261E088E10E94460261E089E10E9468
:100F6000460261E08BE10E9446020E94C40460E0F8
:100F700086E30E94460260E087E30E94460260E04A
:100F800088E30E94460260E089E30E94460268E12D
:100F900072E08FE093E00E940B056AE272E08FE05E
:100FA00093E00E940B05BB24B39486E390E00E947B
:100FB000DE04811159C087E390E00E94DE048111B4
:100FC00053C088E390E00E94DE0481114DC089E3A4
:100FD00090E00E94DE04811147C01092680282E70F
:100FE00092E00E94E803892B09F490C01A821982CA
:100FF0001C821B821E821D8270E060E0CE01019681
:101000000E94980529813A81811143C0211531053B
:1010100019F0C9010E94580A1A8219821E821D8283
:101020001C821B820E949A0397FD3BC08A30910567
:10103000C1F18F8318860D811E810F5F1F4FB8018C
:10104000CE0101960E949805882361F329813A8197
:101050008D819E81BE01695F7F4F820F931F0E9429
:10106000D40B1E830D83DECF809168028111B7CF30
:101070000E94C4046DE272E082E792E00E940B05D8
:101080006AE272E082E792E00E940B05B092680289
:10109000A6CF1E821D826CE272E0C9010E94D40BB1
:1010A000C1CFC980DA80C114D10439F00D811E810D
:1010B00076010115110509F09BC06BE372E0CE01CA
:1010C00001960E948305882309F4C8C061E086E187
:1010D0000E94180260E087E10E94180261E088E146
:1010E0000E94180260E089E10E94180264EB70E03F
:1010F0008AE10E94770264EB70E08BE10E94770244
:1011000089819A81009711F00E94580A2FB7F894AC
:1011100080916E0290916F02A0917002B091710265
:101120002FBF4091640250916502609166027091F8
:101130006702841B950BA60BB70B853F9140A10559
:10114000B10508F451C02FB7F89480916E029091C8
:101150006F02A0917002B09171022FBF8093640260
:1011600090936502A0936602B093670269E572E00E
:1011700082E792E00E940B0586E390E00E94DE0485
:1011800090E00E947C0562E672E082E792E00E94B5
:101190000B0587E390E00E94DE0490E00E947C054E
:1011A00062E672E082E792E00E940B0588E390E03D
:1011B0000E94DE0490E00E947C0562E672E082E715
:1011C00092E00E940B0589E390E00E94DE04682F04
:1011D00070E090E080E04AE00E9415056AE272E06B
:1011E00082E792E00E940B050E949704DECE740114
:1011F00047012FEF821A920AF7018081082E000C16
:10120000990B0E948609892B91F7015011090C0D49
:101210001D1DF8018081082E000C990B0E94860983
:10122000892B31F00E151F0518F001501109F1CF6F
:10123000A8014F5F5F4F4E195F095E834D83CE1447
:10124000DF0420F4B701C6010E94C20BE981FA81D4
:101250008D819E81E80FF91F10822FCF61E472E02B
:10126000CE0101960E948305882371F060E086E13B
:101270000E94180261E087E10E94180260E088E1A4
:101280000E94180261E02FCF67E472E0CE01019660
:101290000E9483058823C1F060E086E10E94180265
:1012A00061E087E10E94180261E088E10E94180273
:1012B00060E089E10E94180260EA70E08AE10E9421
:1012C000770260EA70E019CF6DE472E0CE0101961A
:1012D0000E948305882371F061E086E10E94180274
:1012E00060E087E10E94180260E088E10E94180235
:1012F00061E0DFCF63E572E0CE0101960E948305D5
:10130000882309F4FDCE0E94C404FACE91110C94F6
:101310008F09803219F089508550C8F708959927B0
:1013200088270895A1E21A2EAA1BBB1BFD010DC040
:10133000AA1FBB1FEE1FFF1FA217B307E407F50785
:1013400020F0A21BB30BE40BF50B661F771F881F61
:10135000991F1A9469F760957095809590959B01F7
:10136000AC01BD01CF010895EE0FFF1F881F8BBF99
:101370000790F691E02D19940F931F93CF93DF936D
:101380008230910510F482E090E0E091AE03F0919C
:10139000AF0330E020E0B0E0A0E0309799F42115F1
:1013A000310509F44AC0281B390B24303105D8F522
:1013B0008A819B816115710589F1FB019383828389
:1013C000FE0111C0408151810281138148175907E4
:1013D000E0F04817590799F4109761F012960C93B2
:1013E000129713961C933296CF01DF91CF911F91E4
:1013F0000F9108950093AE031093AF03F4CF21151E
:10140000310551F04217530738F0A901DB019A0169
:10141000BD01DF01F801C1CFEF01F9CF9093AF0318
:101420008093AE03CDCFFE01E20FF31F8193919322
:101430002250310939832883D7CF2091AC033091D2
:10144000AD03232B41F4209102023091030230932B
:10145000AD032093AC0320910002309101022115CD
:10146000310541F42DB73EB7409104025091050279
:10147000241B350BE091AC03F091AD03E217F307A9
:10148000A0F42E1B3F0B2817390778F0AC014E5FF4
:101490005F4F2417350748F04E0F5F1F5093AD0381
:1014A0004093AC03819391939FCFF0E0E0E09CCF19
:1014B000CF93DF930097E9F0FC01329713821282F9
:1014C000A091AE03B091AF03ED0130E020E01097A2
:1014D000A1F420813181820F931F2091AC033091C0
:1014E000AD032817390709F061C0F093AD03E0930D
:1014F000AC03DF91CF910895EA01CE17DF07E8F53D
:101500004A815B819E0141155105B1F7E901FB83D9
:10151000EA8349915991C40FD51FEC17FD0761F477
:10152000808191810296840F951FE90199838883B8
:10153000828193819B838A83F0E0E0E012968D9113
:101540009C9113970097B9F52D913C911197CD017E
:101550000296820F931F2091AC033091AD032817A0
:10156000390739F6309751F51092AF031092AE0358
:10157000B093AD03A093AC03BCCFD383C2834081AF
:101580005181840F951FC817D90761F44E5F5F4FD3
:1015900088819981480F591F518340838A819B819B
:1015A000938382832115310509F0B0CFF093AF0307
:1015B000E093AE039ECFFD01DC01C0CF1382128207
:1015C000D7CF4F925F926F927F928F929F92AF92FE
:1015D000BF92CF92DF92EF92FF920F931F93CF9320
:1015E000DF938C01009799F4CB01DF91CF911F918C
:1015F0000F91FF90EF90DF90CF90BF90AF909F90B2
:101600008F907F906F905F904F900C94BC09FC017D
:10161000E60FF71F9C0122503109E217F30708F487
:10162000AEC0D901CD91DC911197C617D70720F133
:10163000C530D10578F0CE0104978617970750F092
:10164000C61BD70B2297C193D1936D937C93CF0187
:101650000E94580AC801DF91CF911F910F91FF900E
:10166000EF90DF90CF90BF90AF909F908F907F9042
:101670006F905F904F9008955B01AC1ABD0A4C01CA
:101680008C0E9D1EA091AE03B091AF03512C412C46
:10169000F12CE12C109731F58091AC039091AD03C2
:1016A0008815990509F05CC04616570608F058C021
:1016B0008091000290910102009741F48DB79EB78E
:1016C0004091040250910502841B950BE817F9071D
:1016D00008F055C0F093AD03E093AC03F9017183BA
:1016E0006083B8CF8D919C91119712966C90129750
:1016F00013967C901397A815B90559F56C0142E033
:10170000C40ED11CCA14DB0420F1AC014A195B09D8
:10171000DA011296159780F06282738251834083BA
:10172000D9016D937C93E114F10471F0D701139604
:10173000FC93EE9312978ECF22968C0F9D1FF9018A
:1017400091838083F301EFCFF093AF03E093AE0377
:1017500081CF4816590608F42C017D01D3019ACF98
:10176000CB010E94BC097C01009749F0AE01B80191
:101770000E94C20BC8010E94580A87016BCF10E07B
:1017800000E068CFFB01DC0102C001900D924150E6
:101790005040D8F70895FB01DC018D91019080192C
:1017A0000110D9F3990B0895FB01DC0101900D9212
:0A17B0000020E1F70895F894FFCF40
:1017BA000000B0038000000000002A044A037703F7
:1017CA007704E8038603DA03524F56455254204DF4
:1017DA00656761205265616479000D0A00455645C6
:1017EA004E543A49525F53544F5000434D443A467F
:1017FA0000434D443A4200434D443A4C00434D4461
:10180A003A5200434D443A530053454E534F5253B4
:04181A003A002C0064
:00000001FF
